{
  "_format": "hh-sol-artifact-1",
  "contractName": "ERC3643Token",
  "sourceName": "contracts/ERC3643Token.sol",
  "abi": [
    {
      "inputs": [
        {
          "internalType": "string",
          "name": "name",
          "type": "string"
        },
        {
          "internalType": "string",
          "name": "symbol",
          "type": "string"
        },
        {
          "internalType": "address",
          "name": "kycRegistryAddress",
          "type": "address"
        }
      ],
      "stateMutability": "nonpayable",
      "type": "constructor"
    },
    {
      "inputs": [],
      "name": "AccessControlBadConfirmation",
      "type": "error"
    },
    {
      "inputs": [
        {
          "internalType": "address",
          "name": "account",
          "type": "address"
        },
        {
          "internalType": "bytes32",
          "name": "neededRole",
          "type": "bytes32"
        }
      ],
      "name": "AccessControlUnauthorizedAccount",
      "type": "error"
    },
    {
      "inputs": [
        {
          "internalType": "address",
          "name": "spender",
          "type": "address"
        },
        {
          "internalType": "uint256",
          "name": "allowance",
          "type": "uint256"
        },
        {
          "internalType": "uint256",
          "name": "needed",
          "type": "uint256"
        }
      ],
      "name": "ERC20InsufficientAllowance",
      "type": "error"
    },
    {
      "inputs": [
        {
          "internalType": "address",
          "name": "sender",
          "type": "address"
        },
        {
          "internalType": "uint256",
          "name": "balance",
          "type": "uint256"
        },
        {
          "internalType": "uint256",
          "name": "needed",
          "type": "uint256"
        }
      ],
      "name": "ERC20InsufficientBalance",
      "type": "error"
    },
    {
      "inputs": [
        {
          "internalType": "address",
          "name": "approver",
          "type": "address"
        }
      ],
      "name": "ERC20InvalidApprover",
      "type": "error"
    },
    {
      "inputs": [
        {
          "internalType": "address",
          "name": "receiver",
          "type": "address"
        }
      ],
      "name": "ERC20InvalidReceiver",
      "type": "error"
    },
    {
      "inputs": [
        {
          "internalType": "address",
          "name": "sender",
          "type": "address"
        }
      ],
      "name": "ERC20InvalidSender",
      "type": "error"
    },
    {
      "inputs": [
        {
          "internalType": "address",
          "name": "spender",
          "type": "address"
        }
      ],
      "name": "ERC20InvalidSpender",
      "type": "error"
    },
    {
      "anonymous": false,
      "inputs": [
        {
          "indexed": true,
          "internalType": "address",
          "name": "owner",
          "type": "address"
        },
        {
          "indexed": true,
          "internalType": "address",
          "name": "spender",
          "type": "address"
        },
        {
          "indexed": false,
          "internalType": "uint256",
          "name": "value",
          "type": "uint256"
        }
      ],
      "name": "Approval",
      "type": "event"
    },
    {
      "anonymous": false,
      "inputs": [
        {
          "indexed": true,
          "internalType": "bytes32",
          "name": "role",
          "type": "bytes32"
        },
        {
          "indexed": true,
          "internalType": "bytes32",
          "name": "previousAdminRole",
          "type": "bytes32"
        },
        {
          "indexed": true,
          "internalType": "bytes32",
          "name": "newAdminRole",
          "type": "bytes32"
        }
      ],
      "name": "RoleAdminChanged",
      "type": "event"
    },
    {
      "anonymous": false,
      "inputs": [
        {
          "indexed": true,
          "internalType": "bytes32",
          "name": "role",
          "type": "bytes32"
        },
        {
          "indexed": true,
          "internalType": "address",
          "name": "account",
          "type": "address"
        },
        {
          "indexed": true,
          "internalType": "address",
          "name": "sender",
          "type": "address"
        }
      ],
      "name": "RoleGranted",
      "type": "event"
    },
    {
      "anonymous": false,
      "inputs": [
        {
          "indexed": true,
          "internalType": "bytes32",
          "name": "role",
          "type": "bytes32"
        },
        {
          "indexed": true,
          "internalType": "address",
          "name": "account",
          "type": "address"
        },
        {
          "indexed": true,
          "internalType": "address",
          "name": "sender",
          "type": "address"
        }
      ],
      "name": "RoleRevoked",
      "type": "event"
    },
    {
      "anonymous": false,
      "inputs": [
        {
          "indexed": true,
          "internalType": "address",
          "name": "from",
          "type": "address"
        },
        {
          "indexed": true,
          "internalType": "address",
          "name": "to",
          "type": "address"
        },
        {
          "indexed": false,
          "internalType": "uint256",
          "name": "value",
          "type": "uint256"
        }
      ],
      "name": "Transfer",
      "type": "event"
    },
    {
      "inputs": [],
      "name": "ADMIN_ROLE",
      "outputs": [
        {
          "internalType": "bytes32",
          "name": "",
          "type": "bytes32"
        }
      ],
      "stateMutability": "view",
      "type": "function"
    },
    {
      "inputs": [],
      "name": "DEFAULT_ADMIN_ROLE",
      "outputs": [
        {
          "internalType": "bytes32",
          "name": "",
          "type": "bytes32"
        }
      ],
      "stateMutability": "view",
      "type": "function"
    },
    {
      "inputs": [
        {
          "internalType": "address",
          "name": "owner",
          "type": "address"
        },
        {
          "internalType": "address",
          "name": "spender",
          "type": "address"
        }
      ],
      "name": "allowance",
      "outputs": [
        {
          "internalType": "uint256",
          "name": "",
          "type": "uint256"
        }
      ],
      "stateMutability": "view",
      "type": "function"
    },
    {
      "inputs": [
        {
          "internalType": "address",
          "name": "spender",
          "type": "address"
        },
        {
          "internalType": "uint256",
          "name": "value",
          "type": "uint256"
        }
      ],
      "name": "approve",
      "outputs": [
        {
          "internalType": "bool",
          "name": "",
          "type": "bool"
        }
      ],
      "stateMutability": "nonpayable",
      "type": "function"
    },
    {
      "inputs": [
        {
          "internalType": "address",
          "name": "account",
          "type": "address"
        }
      ],
      "name": "balanceOf",
      "outputs": [
        {
          "internalType": "uint256",
          "name": "",
          "type": "uint256"
        }
      ],
      "stateMutability": "view",
      "type": "function"
    },
    {
      "inputs": [],
      "name": "decimals",
      "outputs": [
        {
          "internalType": "uint8",
          "name": "",
          "type": "uint8"
        }
      ],
      "stateMutability": "view",
      "type": "function"
    },
    {
      "inputs": [
        {
          "internalType": "address",
          "name": "account",
          "type": "address"
        }
      ],
      "name": "getMetadata",
      "outputs": [
        {
          "internalType": "string",
          "name": "",
          "type": "string"
        }
      ],
      "stateMutability": "view",
      "type": "function"
    },
    {
      "inputs": [
        {
          "internalType": "bytes32",
          "name": "role",
          "type": "bytes32"
        }
      ],
      "name": "getRoleAdmin",
      "outputs": [
        {
          "internalType": "bytes32",
          "name": "",
          "type": "bytes32"
        }
      ],
      "stateMutability": "view",
      "type": "function"
    },
    {
      "inputs": [
        {
          "internalType": "bytes32",
          "name": "role",
          "type": "bytes32"
        },
        {
          "internalType": "address",
          "name": "account",
          "type": "address"
        }
      ],
      "name": "grantRole",
      "outputs": [],
      "stateMutability": "nonpayable",
      "type": "function"
    },
    {
      "inputs": [
        {
          "internalType": "bytes32",
          "name": "role",
          "type": "bytes32"
        },
        {
          "internalType": "address",
          "name": "account",
          "type": "address"
        }
      ],
      "name": "hasRole",
      "outputs": [
        {
          "internalType": "bool",
          "name": "",
          "type": "bool"
        }
      ],
      "stateMutability": "view",
      "type": "function"
    },
    {
      "inputs": [],
      "name": "kycRegistry",
      "outputs": [
        {
          "internalType": "contract IKYCRegistry",
          "name": "",
          "type": "address"
        }
      ],
      "stateMutability": "view",
      "type": "function"
    },
    {
      "inputs": [
        {
          "internalType": "address",
          "name": "to",
          "type": "address"
        },
        {
          "internalType": "uint256",
          "name": "amount",
          "type": "uint256"
        },
        {
          "internalType": "string",
          "name": "ipfsHash",
          "type": "string"
        }
      ],
      "name": "mint",
      "outputs": [],
      "stateMutability": "nonpayable",
      "type": "function"
    },
    {
      "inputs": [],
      "name": "name",
      "outputs": [
        {
          "internalType": "string",
          "name": "",
          "type": "string"
        }
      ],
      "stateMutability": "view",
      "type": "function"
    },
    {
      "inputs": [
        {
          "internalType": "bytes32",
          "name": "role",
          "type": "bytes32"
        },
        {
          "internalType": "address",
          "name": "callerConfirmation",
          "type": "address"
        }
      ],
      "name": "renounceRole",
      "outputs": [],
      "stateMutability": "nonpayable",
      "type": "function"
    },
    {
      "inputs": [
        {
          "internalType": "bytes32",
          "name": "role",
          "type": "bytes32"
        },
        {
          "internalType": "address",
          "name": "account",
          "type": "address"
        }
      ],
      "name": "revokeRole",
      "outputs": [],
      "stateMutability": "nonpayable",
      "type": "function"
    },
    {
      "inputs": [
        {
          "internalType": "bytes4",
          "name": "interfaceId",
          "type": "bytes4"
        }
      ],
      "name": "supportsInterface",
      "outputs": [
        {
          "internalType": "bool",
          "name": "",
          "type": "bool"
        }
      ],
      "stateMutability": "view",
      "type": "function"
    },
    {
      "inputs": [],
      "name": "symbol",
      "outputs": [
        {
          "internalType": "string",
          "name": "",
          "type": "string"
        }
      ],
      "stateMutability": "view",
      "type": "function"
    },
    {
      "inputs": [],
      "name": "totalSupply",
      "outputs": [
        {
          "internalType": "uint256",
          "name": "",
          "type": "uint256"
        }
      ],
      "stateMutability": "view",
      "type": "function"
    },
    {
      "inputs": [
        {
          "internalType": "address",
          "name": "to",
          "type": "address"
        },
        {
          "internalType": "uint256",
          "name": "value",
          "type": "uint256"
        }
      ],
      "name": "transfer",
      "outputs": [
        {
          "internalType": "bool",
          "name": "",
          "type": "bool"
        }
      ],
      "stateMutability": "nonpayable",
      "type": "function"
    },
    {
      "inputs": [
        {
          "internalType": "address",
          "name": "from",
          "type": "address"
        },
        {
          "internalType": "address",
          "name": "to",
          "type": "address"
        },
        {
          "internalType": "uint256",
          "name": "value",
          "type": "uint256"
        }
      ],
      "name": "transferFrom",
      "outputs": [
        {
          "internalType": "bool",
          "name": "",
          "type": "bool"
        }
      ],
      "stateMutability": "nonpayable",
      "type": "function"
    }
  ],
  "bytecode": "0x60806040523480156200001157600080fd5b50604051620026ff380380620026ff83398181016040528101906200003791906200044b565b828281600390816200004a919062000730565b5080600490816200005c919062000730565b505050620000917fa49807205ce4d355092ef5a8a18f56e8913cf4a201fbe287825b095693c2177533620000dc60201b60201c565b5080600660006101000a81548173ffffffffffffffffffffffffffffffffffffffff021916908373ffffffffffffffffffffffffffffffffffffffff16021790555050505062000817565b6000620000f08383620001e060201b60201c565b620001d55760016005600085815260200190815260200160002060000160008473ffffffffffffffffffffffffffffffffffffffff1673ffffffffffffffffffffffffffffffffffffffff16815260200190815260200160002060006101000a81548160ff021916908315150217905550620001716200024b60201b60201c565b73ffffffffffffffffffffffffffffffffffffffff168273ffffffffffffffffffffffffffffffffffffffff16847f2f8788117e7eff1d82e926ec794901d17c78024a50270940304540a733656f0d60405160405180910390a460019050620001da565b600090505b92915050565b60006005600084815260200190815260200160002060000160008373ffffffffffffffffffffffffffffffffffffffff1673ffffffffffffffffffffffffffffffffffffffff16815260200190815260200160002060009054906101000a900460ff16905092915050565b600033905090565b6000604051905090565b600080fd5b600080fd5b600080fd5b600080fd5b6000601f19601f8301169050919050565b7f4e487b7100000000000000000000000000000000000000000000000000000000600052604160045260246000fd5b620002bc8262000271565b810181811067ffffffffffffffff82111715620002de57620002dd62000282565b5b80604052505050565b6000620002f362000253565b9050620003018282620002b1565b919050565b600067ffffffffffffffff82111562000324576200032362000282565b5b6200032f8262000271565b9050602081019050919050565b60005b838110156200035c5780820151818401526020810190506200033f565b60008484015250505050565b60006200037f620003798462000306565b620002e7565b9050828152602081018484840111156200039e576200039d6200026c565b5b620003ab8482856200033c565b509392505050565b600082601f830112620003cb57620003ca62000267565b5b8151620003dd84826020860162000368565b91505092915050565b600073ffffffffffffffffffffffffffffffffffffffff82169050919050565b60006200041382620003e6565b9050919050565b620004258162000406565b81146200043157600080fd5b50565b60008151905062000445816200041a565b92915050565b6000806000606084860312156200046757620004666200025d565b5b600084015167ffffffffffffffff81111562000488576200048762000262565b5b6200049686828701620003b3565b935050602084015167ffffffffffffffff811115620004ba57620004b962000262565b5b620004c886828701620003b3565b9250506040620004db8682870162000434565b9150509250925092565b600081519050919050565b7f4e487b7100000000000000000000000000000000000000000000000000000000600052602260045260246000fd5b600060028204905060018216806200053857607f821691505b6020821081036200054e576200054d620004f0565b5b50919050565b60008190508160005260206000209050919050565b60006020601f8301049050919050565b600082821b905092915050565b600060088302620005b87fffffffffffffffffffffffffffffffffffffffffffffffffffffffffffffffff8262000579565b620005c4868362000579565b95508019841693508086168417925050509392505050565b6000819050919050565b6000819050919050565b6000620006116200060b6200060584620005dc565b620005e6565b620005dc565b9050919050565b6000819050919050565b6200062d83620005f0565b620006456200063c8262000618565b84845462000586565b825550505050565b600090565b6200065c6200064d565b6200066981848462000622565b505050565b5b8181101562000691576200068560008262000652565b6001810190506200066f565b5050565b601f821115620006e057620006aa8162000554565b620006b58462000569565b81016020851015620006c5578190505b620006dd620006d48562000569565b8301826200066e565b50505b505050565b600082821c905092915050565b60006200070560001984600802620006e5565b1980831691505092915050565b6000620007208383620006f2565b9150826002028217905092915050565b6200073b82620004e5565b67ffffffffffffffff81111562000757576200075662000282565b5b6200076382546200051f565b6200077082828562000695565b600060209050601f831160018114620007a8576000841562000793578287015190505b6200079f858262000712565b8655506200080f565b601f198416620007b88662000554565b60005b82811015620007e257848901518255600182019150602085019450602081019050620007bb565b86831015620008025784890151620007fe601f891682620006f2565b8355505b6001600288020188555050505b505050505050565b611ed880620008276000396000f3fe608060405234801561001057600080fd5b506004361061012c5760003560e01c80634b155b97116100ad578063a217fddf11610071578063a217fddf1461036d578063a9059cbb1461038b578063d3fc9864146103bb578063d547741f146103d7578063dd62ed3e146103f35761012c565b80634b155b97146102b357806370a08231146102d157806375b238fc1461030157806391d148541461031f57806395d89b411461034f5761012c565b8063248a9ca3116100f4578063248a9ca3146101fd5780632a50c1461461022d5780632f2ff15d1461025d578063313ce5671461027957806336568abe146102975761012c565b806301ffc9a71461013157806306fdde0314610161578063095ea7b31461017f57806318160ddd146101af57806323b872dd146101cd575b600080fd5b61014b60048036038101906101469190611427565b610423565b604051610158919061146f565b60405180910390f35b61016961049d565b604051610176919061151a565b60405180910390f35b610199600480360381019061019491906115d0565b61052f565b6040516101a6919061146f565b60405180910390f35b6101b7610552565b6040516101c4919061161f565b60405180910390f35b6101e760048036038101906101e2919061163a565b61055c565b6040516101f4919061146f565b60405180910390f35b610217600480360381019061021291906116c3565b61058b565b60405161022491906116ff565b60405180910390f35b6102476004803603810190610242919061171a565b6105ab565b604051610254919061151a565b60405180910390f35b61027760048036038101906102729190611747565b61067c565b005b61028161069e565b60405161028e91906117a3565b60405180910390f35b6102b160048036038101906102ac9190611747565b6106a7565b005b6102bb610722565b6040516102c8919061181d565b60405180910390f35b6102eb60048036038101906102e6919061171a565b610748565b6040516102f8919061161f565b60405180910390f35b610309610790565b60405161031691906116ff565b60405180910390f35b61033960048036038101906103349190611747565b6107b4565b604051610346919061146f565b60405180910390f35b61035761081f565b604051610364919061151a565b60405180910390f35b6103756108b1565b60405161038291906116ff565b60405180910390f35b6103a560048036038101906103a091906115d0565b6108b8565b6040516103b2919061146f565b60405180910390f35b6103d560048036038101906103d0919061196d565b6108db565b005b6103f160048036038101906103ec9190611747565b610a3d565b005b61040d600480360381019061040891906119dc565b610a5f565b60405161041a919061161f565b60405180910390f35b60007f7965db0b000000000000000000000000000000000000000000000000000000007bffffffffffffffffffffffffffffffffffffffffffffffffffffffff1916827bffffffffffffffffffffffffffffffffffffffffffffffffffffffff19161480610496575061049582610ae6565b5b9050919050565b6060600380546104ac90611a4b565b80601f01602080910402602001604051908101604052809291908181526020018280546104d890611a4b565b80156105255780601f106104fa57610100808354040283529160200191610525565b820191906000526020600020905b81548152906001019060200180831161050857829003601f168201915b5050505050905090565b60008061053a610b50565b9050610547818585610b58565b600191505092915050565b6000600254905090565b600080610567610b50565b9050610574858285610b6a565b61057f858585610bff565b60019150509392505050565b600060056000838152602001908152602001600020600101549050919050565b6060600760008373ffffffffffffffffffffffffffffffffffffffff1673ffffffffffffffffffffffffffffffffffffffff16815260200190815260200160002080546105f790611a4b565b80601f016020809104026020016040519081016040528092919081815260200182805461062390611a4b565b80156106705780601f1061064557610100808354040283529160200191610670565b820191906000526020600020905b81548152906001019060200180831161065357829003601f168201915b50505050509050919050565b6106858261058b565b61068e81610cf3565b6106988383610d07565b50505050565b60006012905090565b6106af610b50565b73ffffffffffffffffffffffffffffffffffffffff168173ffffffffffffffffffffffffffffffffffffffff1614610713576040517f6697b23200000000000000000000000000000000000000000000000000000000815260040160405180910390fd5b61071d8282610df9565b505050565b600660009054906101000a900473ffffffffffffffffffffffffffffffffffffffff1681565b60008060008373ffffffffffffffffffffffffffffffffffffffff1673ffffffffffffffffffffffffffffffffffffffff168152602001908152602001600020549050919050565b7fa49807205ce4d355092ef5a8a18f56e8913cf4a201fbe287825b095693c2177581565b60006005600084815260200190815260200160002060000160008373ffffffffffffffffffffffffffffffffffffffff1673ffffffffffffffffffffffffffffffffffffffff16815260200190815260200160002060009054906101000a900460ff16905092915050565b60606004805461082e90611a4b565b80601f016020809104026020016040519081016040528092919081815260200182805461085a90611a4b565b80156108a75780601f1061087c576101008083540402835291602001916108a7565b820191906000526020600020905b81548152906001019060200180831161088a57829003601f168201915b5050505050905090565b6000801b81565b6000806108c3610b50565b90506108d0818585610bff565b600191505092915050565b7fa49807205ce4d355092ef5a8a18f56e8913cf4a201fbe287825b095693c2177561090581610cf3565b600660009054906101000a900473ffffffffffffffffffffffffffffffffffffffff1673ffffffffffffffffffffffffffffffffffffffff166354b7636e856040518263ffffffff1660e01b81526004016109609190611a8b565b602060405180830381865afa15801561097d573d6000803e3d6000fd5b505050506040513d601f19601f820116820180604052508101906109a19190611ad2565b6109e0576040517f08c379a00000000000000000000000000000000000000000000000000000000081526004016109d790611b4b565b60405180910390fd5b6109ea8484610eec565b81600760008673ffffffffffffffffffffffffffffffffffffffff1673ffffffffffffffffffffffffffffffffffffffff1681526020019081526020016000209081610a369190611d0d565b5050505050565b610a468261058b565b610a4f81610cf3565b610a598383610df9565b50505050565b6000600160008473ffffffffffffffffffffffffffffffffffffffff1673ffffffffffffffffffffffffffffffffffffffff16815260200190815260200160002060008373ffffffffffffffffffffffffffffffffffffffff1673ffffffffffffffffffffffffffffffffffffffff16815260200190815260200160002054905092915050565b60007f01ffc9a7000000000000000000000000000000000000000000000000000000007bffffffffffffffffffffffffffffffffffffffffffffffffffffffff1916827bffffffffffffffffffffffffffffffffffffffffffffffffffffffff1916149050919050565b600033905090565b610b658383836001610f6e565b505050565b6000610b768484610a5f565b90507fffffffffffffffffffffffffffffffffffffffffffffffffffffffffffffffff811015610bf95781811015610be9578281836040517ffb8f41b2000000000000000000000000000000000000000000000000000000008152600401610be093929190611ddf565b60405180910390fd5b610bf884848484036000610f6e565b5b50505050565b600073ffffffffffffffffffffffffffffffffffffffff168373ffffffffffffffffffffffffffffffffffffffff1603610c715760006040517f96c6fd1e000000000000000000000000000000000000000000000000000000008152600401610c689190611a8b565b60405180910390fd5b600073ffffffffffffffffffffffffffffffffffffffff168273ffffffffffffffffffffffffffffffffffffffff1603610ce35760006040517fec442f05000000000000000000000000000000000000000000000000000000008152600401610cda9190611a8b565b60405180910390fd5b610cee838383611145565b505050565b610d0481610cff610b50565b61136a565b50565b6000610d1383836107b4565b610dee5760016005600085815260200190815260200160002060000160008473ffffffffffffffffffffffffffffffffffffffff1673ffffffffffffffffffffffffffffffffffffffff16815260200190815260200160002060006101000a81548160ff021916908315150217905550610d8b610b50565b73ffffffffffffffffffffffffffffffffffffffff168273ffffffffffffffffffffffffffffffffffffffff16847f2f8788117e7eff1d82e926ec794901d17c78024a50270940304540a733656f0d60405160405180910390a460019050610df3565b600090505b92915050565b6000610e0583836107b4565b15610ee15760006005600085815260200190815260200160002060000160008473ffffffffffffffffffffffffffffffffffffffff1673ffffffffffffffffffffffffffffffffffffffff16815260200190815260200160002060006101000a81548160ff021916908315150217905550610e7e610b50565b73ffffffffffffffffffffffffffffffffffffffff168273ffffffffffffffffffffffffffffffffffffffff16847ff6391f5c32d9c69d2a47ea670b442974b53935d1edc7fd64eb21e047a839171b60405160405180910390a460019050610ee6565b600090505b92915050565b600073ffffffffffffffffffffffffffffffffffffffff168273ffffffffffffffffffffffffffffffffffffffff1603610f5e5760006040517fec442f05000000000000000000000000000000000000000000000000000000008152600401610f559190611a8b565b60405180910390fd5b610f6a60008383611145565b5050565b600073ffffffffffffffffffffffffffffffffffffffff168473ffffffffffffffffffffffffffffffffffffffff1603610fe05760006040517fe602df05000000000000000000000000000000000000000000000000000000008152600401610fd79190611a8b565b60405180910390fd5b600073ffffffffffffffffffffffffffffffffffffffff168373ffffffffffffffffffffffffffffffffffffffff16036110525760006040517f94280d620000000000000000000000000000000000000000000000000000000081526004016110499190611a8b565b60405180910390fd5b81600160008673ffffffffffffffffffffffffffffffffffffffff1673ffffffffffffffffffffffffffffffffffffffff16815260200190815260200160002060008573ffffffffffffffffffffffffffffffffffffffff1673ffffffffffffffffffffffffffffffffffffffff16815260200190815260200160002081905550801561113f578273ffffffffffffffffffffffffffffffffffffffff168473ffffffffffffffffffffffffffffffffffffffff167f8c5be1e5ebec7d5bd14f71427d1e84f3dd0314c0f7b2291e5b200ac8c7c3b92584604051611136919061161f565b60405180910390a35b50505050565b600073ffffffffffffffffffffffffffffffffffffffff168373ffffffffffffffffffffffffffffffffffffffff160361119757806002600082825461118b9190611e45565b9250508190555061126a565b60008060008573ffffffffffffffffffffffffffffffffffffffff1673ffffffffffffffffffffffffffffffffffffffff16815260200190815260200160002054905081811015611223578381836040517fe450d38c00000000000000000000000000000000000000000000000000000000815260040161121a93929190611ddf565b60405180910390fd5b8181036000808673ffffffffffffffffffffffffffffffffffffffff1673ffffffffffffffffffffffffffffffffffffffff16815260200190815260200160002081905550505b600073ffffffffffffffffffffffffffffffffffffffff168273ffffffffffffffffffffffffffffffffffffffff16036112b35780600260008282540392505081905550611300565b806000808473ffffffffffffffffffffffffffffffffffffffff1673ffffffffffffffffffffffffffffffffffffffff168152602001908152602001600020600082825401925050819055505b8173ffffffffffffffffffffffffffffffffffffffff168373ffffffffffffffffffffffffffffffffffffffff167fddf252ad1be2c89b69c2b068fc378daa952ba7f163c4a11628f55a4df523b3ef8360405161135d919061161f565b60405180910390a3505050565b61137482826107b4565b6113b75780826040517fe2517d3f0000000000000000000000000000000000000000000000000000000081526004016113ae929190611e79565b60405180910390fd5b5050565b6000604051905090565b600080fd5b600080fd5b60007fffffffff0000000000000000000000000000000000000000000000000000000082169050919050565b611404816113cf565b811461140f57600080fd5b50565b600081359050611421816113fb565b92915050565b60006020828403121561143d5761143c6113c5565b5b600061144b84828501611412565b91505092915050565b60008115159050919050565b61146981611454565b82525050565b60006020820190506114846000830184611460565b92915050565b600081519050919050565b600082825260208201905092915050565b60005b838110156114c45780820151818401526020810190506114a9565b60008484015250505050565b6000601f19601f8301169050919050565b60006114ec8261148a565b6114f68185611495565b93506115068185602086016114a6565b61150f816114d0565b840191505092915050565b6000602082019050818103600083015261153481846114e1565b905092915050565b600073ffffffffffffffffffffffffffffffffffffffff82169050919050565b60006115678261153c565b9050919050565b6115778161155c565b811461158257600080fd5b50565b6000813590506115948161156e565b92915050565b6000819050919050565b6115ad8161159a565b81146115b857600080fd5b50565b6000813590506115ca816115a4565b92915050565b600080604083850312156115e7576115e66113c5565b5b60006115f585828601611585565b9250506020611606858286016115bb565b9150509250929050565b6116198161159a565b82525050565b60006020820190506116346000830184611610565b92915050565b600080600060608486031215611653576116526113c5565b5b600061166186828701611585565b935050602061167286828701611585565b9250506040611683868287016115bb565b9150509250925092565b6000819050919050565b6116a08161168d565b81146116ab57600080fd5b50565b6000813590506116bd81611697565b92915050565b6000602082840312156116d9576116d86113c5565b5b60006116e7848285016116ae565b91505092915050565b6116f98161168d565b82525050565b600060208201905061171460008301846116f0565b92915050565b6000602082840312156117305761172f6113c5565b5b600061173e84828501611585565b91505092915050565b6000806040838503121561175e5761175d6113c5565b5b600061176c858286016116ae565b925050602061177d85828601611585565b9150509250929050565b600060ff82169050919050565b61179d81611787565b82525050565b60006020820190506117b86000830184611794565b92915050565b6000819050919050565b60006117e36117de6117d98461153c565b6117be565b61153c565b9050919050565b60006117f5826117c8565b9050919050565b6000611807826117ea565b9050919050565b611817816117fc565b82525050565b6000602082019050611832600083018461180e565b92915050565b600080fd5b600080fd5b7f4e487b7100000000000000000000000000000000000000000000000000000000600052604160045260246000fd5b61187a826114d0565b810181811067ffffffffffffffff8211171561189957611898611842565b5b80604052505050565b60006118ac6113bb565b90506118b88282611871565b919050565b600067ffffffffffffffff8211156118d8576118d7611842565b5b6118e1826114d0565b9050602081019050919050565b82818337600083830152505050565b600061191061190b846118bd565b6118a2565b90508281526020810184848401111561192c5761192b61183d565b5b6119378482856118ee565b509392505050565b600082601f83011261195457611953611838565b5b81356119648482602086016118fd565b91505092915050565b600080600060608486031215611986576119856113c5565b5b600061199486828701611585565b93505060206119a5868287016115bb565b925050604084013567ffffffffffffffff8111156119c6576119c56113ca565b5b6119d28682870161193f565b9150509250925092565b600080604083850312156119f3576119f26113c5565b5b6000611a0185828601611585565b9250506020611a1285828601611585565b9150509250929050565b7f4e487b7100000000000000000000000000000000000000000000000000000000600052602260045260246000fd5b60006002820490506001821680611a6357607f821691505b602082108103611a7657611a75611a1c565b5b50919050565b611a858161155c565b82525050565b6000602082019050611aa06000830184611a7c565b92915050565b611aaf81611454565b8114611aba57600080fd5b50565b600081519050611acc81611aa6565b92915050565b600060208284031215611ae857611ae76113c5565b5b6000611af684828501611abd565b91505092915050565b7f526563697069656e74206973206e6f74204b5943207665726966696564000000600082015250565b6000611b35601d83611495565b9150611b4082611aff565b602082019050919050565b60006020820190508181036000830152611b6481611b28565b9050919050565b60008190508160005260206000209050919050565b60006020601f8301049050919050565b600082821b905092915050565b600060088302611bcd7fffffffffffffffffffffffffffffffffffffffffffffffffffffffffffffffff82611b90565b611bd78683611b90565b95508019841693508086168417925050509392505050565b6000611c0a611c05611c008461159a565b6117be565b61159a565b9050919050565b6000819050919050565b611c2483611bef565b611c38611c3082611c11565b848454611b9d565b825550505050565b600090565b611c4d611c40565b611c58818484611c1b565b505050565b5b81811015611c7c57611c71600082611c45565b600181019050611c5e565b5050565b601f821115611cc157611c9281611b6b565b611c9b84611b80565b81016020851015611caa578190505b611cbe611cb685611b80565b830182611c5d565b50505b505050565b600082821c905092915050565b6000611ce460001984600802611cc6565b1980831691505092915050565b6000611cfd8383611cd3565b9150826002028217905092915050565b611d168261148a565b67ffffffffffffffff811115611d2f57611d2e611842565b5b611d398254611a4b565b611d44828285611c80565b600060209050601f831160018114611d775760008415611d65578287015190505b611d6f8582611cf1565b865550611dd7565b601f198416611d8586611b6b565b60005b82811015611dad57848901518255600182019150602085019450602081019050611d88565b86831015611dca5784890151611dc6601f891682611cd3565b8355505b6001600288020188555050505b505050505050565b6000606082019050611df46000830186611a7c565b611e016020830185611610565b611e0e6040830184611610565b949350505050565b7f4e487b7100000000000000000000000000000000000000000000000000000000600052601160045260246000fd5b6000611e508261159a565b9150611e5b8361159a565b9250828201905080821115611e7357611e72611e16565b5b92915050565b6000604082019050611e8e6000830185611a7c565b611e9b60208301846116f0565b939250505056fea2646970667358221220fae6148d18faaf6917cef73fd61a78feccf5c4398d9ad98d9b9bb8b6321b6a3064736f6c63430008140033",
  "linkReferences": {},
  "deployedLinkReferences": {}
}