{
  "_format": "hh-sol-artifact-1",
  "contractName": "CustodialWallet",
  "sourceName": "contracts/CustodialWallet.sol",
  "abi": [
    {
      "inputs": [
        {
          "internalType": "address",
          "name": "kycRegistryAddress",
          "type": "address"
        },
        {
          "internalType": "address",
          "name": "tokenAddress",
          "type": "address"
        }
      ],
      "stateMutability": "nonpayable",
      "type": "constructor"
    },
    {
      "inputs": [],
      "name": "AccessControlBadConfirmation",
      "type": "error"
    },
    {
      "inputs": [
        {
          "internalType": "address",
          "name": "account",
          "type": "address"
        },
        {
          "internalType": "bytes32",
          "name": "neededRole",
          "type": "bytes32"
        }
      ],
      "name": "AccessControlUnauthorizedAccount",
      "type": "error"
    },
    {
      "anonymous": false,
      "inputs": [
        {
          "indexed": true,
          "internalType": "address",
          "name": "user",
          "type": "address"
        },
        {
          "indexed": false,
          "internalType": "uint256",
          "name": "amount",
          "type": "uint256"
        }
      ],
      "name": "Deposit",
      "type": "event"
    },
    {
      "anonymous": false,
      "inputs": [
        {
          "indexed": true,
          "internalType": "bytes32",
          "name": "role",
          "type": "bytes32"
        },
        {
          "indexed": true,
          "internalType": "bytes32",
          "name": "previousAdminRole",
          "type": "bytes32"
        },
        {
          "indexed": true,
          "internalType": "bytes32",
          "name": "newAdminRole",
          "type": "bytes32"
        }
      ],
      "name": "RoleAdminChanged",
      "type": "event"
    },
    {
      "anonymous": false,
      "inputs": [
        {
          "indexed": true,
          "internalType": "bytes32",
          "name": "role",
          "type": "bytes32"
        },
        {
          "indexed": true,
          "internalType": "address",
          "name": "account",
          "type": "address"
        },
        {
          "indexed": true,
          "internalType": "address",
          "name": "sender",
          "type": "address"
        }
      ],
      "name": "RoleGranted",
      "type": "event"
    },
    {
      "anonymous": false,
      "inputs": [
        {
          "indexed": true,
          "internalType": "bytes32",
          "name": "role",
          "type": "bytes32"
        },
        {
          "indexed": true,
          "internalType": "address",
          "name": "account",
          "type": "address"
        },
        {
          "indexed": true,
          "internalType": "address",
          "name": "sender",
          "type": "address"
        }
      ],
      "name": "RoleRevoked",
      "type": "event"
    },
    {
      "anonymous": false,
      "inputs": [
        {
          "indexed": true,
          "internalType": "bytes32",
          "name": "txId",
          "type": "bytes32"
        },
        {
          "indexed": true,
          "internalType": "address",
          "name": "approver",
          "type": "address"
        }
      ],
      "name": "WithdrawalApproved",
      "type": "event"
    },
    {
      "anonymous": false,
      "inputs": [
        {
          "indexed": true,
          "internalType": "bytes32",
          "name": "txId",
          "type": "bytes32"
        },
        {
          "indexed": true,
          "internalType": "address",
          "name": "user",
          "type": "address"
        },
        {
          "indexed": false,
          "internalType": "uint256",
          "name": "amount",
          "type": "uint256"
        }
      ],
      "name": "WithdrawalExecuted",
      "type": "event"
    },
    {
      "anonymous": false,
      "inputs": [
        {
          "indexed": true,
          "internalType": "bytes32",
          "name": "txId",
          "type": "bytes32"
        },
        {
          "indexed": true,
          "internalType": "address",
          "name": "user",
          "type": "address"
        },
        {
          "indexed": false,
          "internalType": "uint256",
          "name": "amount",
          "type": "uint256"
        }
      ],
      "name": "WithdrawalRequested",
      "type": "event"
    },
    {
      "inputs": [],
      "name": "ADMIN_ROLE",
      "outputs": [
        {
          "internalType": "bytes32",
          "name": "",
          "type": "bytes32"
        }
      ],
      "stateMutability": "view",
      "type": "function"
    },
    {
      "inputs": [],
      "name": "APPROVER_ROLE",
      "outputs": [
        {
          "internalType": "bytes32",
          "name": "",
          "type": "bytes32"
        }
      ],
      "stateMutability": "view",
      "type": "function"
    },
    {
      "inputs": [],
      "name": "CUSTODIAN_ROLE",
      "outputs": [
        {
          "internalType": "bytes32",
          "name": "",
          "type": "bytes32"
        }
      ],
      "stateMutability": "view",
      "type": "function"
    },
    {
      "inputs": [],
      "name": "DEFAULT_ADMIN_ROLE",
      "outputs": [
        {
          "internalType": "bytes32",
          "name": "",
          "type": "bytes32"
        }
      ],
      "stateMutability": "view",
      "type": "function"
    },
    {
      "inputs": [],
      "name": "REQUIRED_APPROVALS",
      "outputs": [
        {
          "internalType": "uint256",
          "name": "",
          "type": "uint256"
        }
      ],
      "stateMutability": "view",
      "type": "function"
    },
    {
      "inputs": [
        {
          "internalType": "bytes32",
          "name": "txId",
          "type": "bytes32"
        }
      ],
      "name": "approveWithdrawal",
      "outputs": [],
      "stateMutability": "nonpayable",
      "type": "function"
    },
    {
      "inputs": [
        {
          "internalType": "uint256",
          "name": "amount",
          "type": "uint256"
        }
      ],
      "name": "deposit",
      "outputs": [],
      "stateMutability": "nonpayable",
      "type": "function"
    },
    {
      "inputs": [
        {
          "internalType": "bytes32",
          "name": "txId",
          "type": "bytes32"
        },
        {
          "internalType": "address",
          "name": "user",
          "type": "address"
        },
        {
          "internalType": "uint256",
          "name": "amount",
          "type": "uint256"
        }
      ],
      "name": "executeWithdrawal",
      "outputs": [],
      "stateMutability": "nonpayable",
      "type": "function"
    },
    {
      "inputs": [
        {
          "internalType": "address",
          "name": "user",
          "type": "address"
        }
      ],
      "name": "getBalance",
      "outputs": [
        {
          "internalType": "uint256",
          "name": "",
          "type": "uint256"
        }
      ],
      "stateMutability": "view",
      "type": "function"
    },
    {
      "inputs": [
        {
          "internalType": "bytes32",
          "name": "role",
          "type": "bytes32"
        }
      ],
      "name": "getRoleAdmin",
      "outputs": [
        {
          "internalType": "bytes32",
          "name": "",
          "type": "bytes32"
        }
      ],
      "stateMutability": "view",
      "type": "function"
    },
    {
      "inputs": [
        {
          "internalType": "bytes32",
          "name": "role",
          "type": "bytes32"
        },
        {
          "internalType": "address",
          "name": "account",
          "type": "address"
        }
      ],
      "name": "grantRole",
      "outputs": [],
      "stateMutability": "nonpayable",
      "type": "function"
    },
    {
      "inputs": [
        {
          "internalType": "bytes32",
          "name": "role",
          "type": "bytes32"
        },
        {
          "internalType": "address",
          "name": "account",
          "type": "address"
        }
      ],
      "name": "hasRole",
      "outputs": [
        {
          "internalType": "bool",
          "name": "",
          "type": "bool"
        }
      ],
      "stateMutability": "view",
      "type": "function"
    },
    {
      "inputs": [],
      "name": "kycRegistry",
      "outputs": [
        {
          "internalType": "contract IKYCRegistry",
          "name": "",
          "type": "address"
        }
      ],
      "stateMutability": "view",
      "type": "function"
    },
    {
      "inputs": [
        {
          "internalType": "bytes32",
          "name": "role",
          "type": "bytes32"
        },
        {
          "internalType": "address",
          "name": "callerConfirmation",
          "type": "address"
        }
      ],
      "name": "renounceRole",
      "outputs": [],
      "stateMutability": "nonpayable",
      "type": "function"
    },
    {
      "inputs": [
        {
          "internalType": "uint256",
          "name": "amount",
          "type": "uint256"
        }
      ],
      "name": "requestWithdrawal",
      "outputs": [],
      "stateMutability": "nonpayable",
      "type": "function"
    },
    {
      "inputs": [
        {
          "internalType": "bytes32",
          "name": "role",
          "type": "bytes32"
        },
        {
          "internalType": "address",
          "name": "account",
          "type": "address"
        }
      ],
      "name": "revokeRole",
      "outputs": [],
      "stateMutability": "nonpayable",
      "type": "function"
    },
    {
      "inputs": [],
      "name": "rwaToken",
      "outputs": [
        {
          "internalType": "contract ERC3643Token",
          "name": "",
          "type": "address"
        }
      ],
      "stateMutability": "view",
      "type": "function"
    },
    {
      "inputs": [
        {
          "internalType": "bytes4",
          "name": "interfaceId",
          "type": "bytes4"
        }
      ],
      "name": "supportsInterface",
      "outputs": [
        {
          "internalType": "bool",
          "name": "",
          "type": "bool"
        }
      ],
      "stateMutability": "view",
      "type": "function"
    }
  ],
  "bytecode": "0x60806040523480156200001157600080fd5b5060405162001c3638038062001c368339818101604052810190620000379190620002d3565b620000697fa49807205ce4d355092ef5a8a18f56e8913cf4a201fbe287825b095693c2177533620000f460201b60201c565b5081600160006101000a81548173ffffffffffffffffffffffffffffffffffffffff021916908373ffffffffffffffffffffffffffffffffffffffff16021790555080600260006101000a81548173ffffffffffffffffffffffffffffffffffffffff021916908373ffffffffffffffffffffffffffffffffffffffff16021790555050506200031a565b6000620001088383620001f760201b60201c565b620001ec57600160008085815260200190815260200160002060000160008473ffffffffffffffffffffffffffffffffffffffff1673ffffffffffffffffffffffffffffffffffffffff16815260200190815260200160002060006101000a81548160ff021916908315150217905550620001886200026160201b60201c565b73ffffffffffffffffffffffffffffffffffffffff168273ffffffffffffffffffffffffffffffffffffffff16847f2f8788117e7eff1d82e926ec794901d17c78024a50270940304540a733656f0d60405160405180910390a460019050620001f1565b600090505b92915050565b600080600084815260200190815260200160002060000160008373ffffffffffffffffffffffffffffffffffffffff1673ffffffffffffffffffffffffffffffffffffffff16815260200190815260200160002060009054906101000a900460ff16905092915050565b600033905090565b600080fd5b600073ffffffffffffffffffffffffffffffffffffffff82169050919050565b60006200029b826200026e565b9050919050565b620002ad816200028e565b8114620002b957600080fd5b50565b600081519050620002cd81620002a2565b92915050565b60008060408385031215620002ed57620002ec62000269565b5b6000620002fd85828601620002bc565b92505060206200031085828601620002bc565b9150509250929050565b61190c806200032a6000396000f3fe608060405234801561001057600080fd5b50600436106101165760003560e01c806375b238fc116100a2578063b6b55f2511610071578063b6b55f25146102cf578063c79445d0146102eb578063d547741f14610309578063f8b2cb4f14610325578063fd66d9a61461035557610116565b806375b238fc1461024757806391d14854146102655780639ee679e814610295578063a217fddf146102b157610116565b806336568abe116100e957806336568abe146101b55780634245962b146101d15780634b155b97146101ef578063509d35231461020d578063599c55331461022957610116565b806301ffc9a71461011b5780630c5bf3511461014b578063248a9ca3146101695780632f2ff15d14610199575b600080fd5b61013560048036038101906101309190611133565b610371565b604051610142919061117b565b60405180910390f35b6101536103eb565b6040516101609190611215565b60405180910390f35b610183600480360381019061017e9190611266565b610411565b60405161019091906112a2565b60405180910390f35b6101b360048036038101906101ae91906112fb565b610430565b005b6101cf60048036038101906101ca91906112fb565b610452565b005b6101d96104cd565b6040516101e691906112a2565b60405180910390f35b6101f76104f1565b604051610204919061135c565b60405180910390f35b61022760048036038101906102229190611266565b610517565b005b610231610613565b60405161023e9190611390565b60405180910390f35b61024f610618565b60405161025c91906112a2565b60405180910390f35b61027f600480360381019061027a91906112fb565b61063c565b60405161028c919061117b565b60405180910390f35b6102af60048036038101906102aa91906113d7565b6106a6565b005b6102b9610885565b6040516102c691906112a2565b60405180910390f35b6102e960048036038101906102e491906113d7565b61088c565b005b6102f3610ab1565b60405161030091906112a2565b60405180910390f35b610323600480360381019061031e91906112fb565b610ad5565b005b61033f600480360381019061033a9190611404565b610af7565b60405161034c9190611390565b60405180910390f35b61036f600480360381019061036a9190611431565b610b40565b005b60007f7965db0b000000000000000000000000000000000000000000000000000000007bffffffffffffffffffffffffffffffffffffffffffffffffffffffff1916827bffffffffffffffffffffffffffffffffffffffffffffffffffffffff191614806103e457506103e382610e1c565b5b9050919050565b600260009054906101000a900473ffffffffffffffffffffffffffffffffffffffff1681565b6000806000838152602001908152602001600020600101549050919050565b61043982610411565b61044281610e86565b61044c8383610e9a565b50505050565b61045a610f8b565b73ffffffffffffffffffffffffffffffffffffffff168173ffffffffffffffffffffffffffffffffffffffff16146104be576040517f6697b23200000000000000000000000000000000000000000000000000000000815260040160405180910390fd5b6104c88282610f93565b505050565b7f408a36151f841709116a4e8aca4e0202874f7f54687dcb863b1ea4672dc9d8cf81565b600160009054906101000a900473ffffffffffffffffffffffffffffffffffffffff1681565b7f408a36151f841709116a4e8aca4e0202874f7f54687dcb863b1ea4672dc9d8cf61054181610e86565b6005600083815260200190815260200160002060009054906101000a900460ff16156105a2576040517f08c379a0000000000000000000000000000000000000000000000000000000008152600401610599906114e1565b60405180910390fd5b6004600083815260200190815260200160002060008154809291906105c690611530565b91905055503373ffffffffffffffffffffffffffffffffffffffff16827f9b7fb9ebb11af49db7704d786ccb0cf052943df0b062f6da40ff1670ff005da060405160405180910390a35050565b600281565b7fa49807205ce4d355092ef5a8a18f56e8913cf4a201fbe287825b095693c2177581565b600080600084815260200190815260200160002060000160008373ffffffffffffffffffffffffffffffffffffffff1673ffffffffffffffffffffffffffffffffffffffff16815260200190815260200160002060009054906101000a900460ff16905092915050565b600160009054906101000a900473ffffffffffffffffffffffffffffffffffffffff1673ffffffffffffffffffffffffffffffffffffffff166354b7636e336040518263ffffffff1660e01b81526004016107019190611587565b602060405180830381865afa15801561071e573d6000803e3d6000fd5b505050506040513d601f19601f8201168201806040525081019061074291906115ce565b610781576040517f08c379a000000000000000000000000000000000000000000000000000000000815260040161077890611647565b60405180910390fd5b80600360003373ffffffffffffffffffffffffffffffffffffffff1673ffffffffffffffffffffffffffffffffffffffff168152602001908152602001600020541015610803576040517f08c379a00000000000000000000000000000000000000000000000000000000081526004016107fa906116b3565b60405180910390fd5b600033824260405160200161081a9392919061173c565b6040516020818303038152906040528051906020012090503373ffffffffffffffffffffffffffffffffffffffff16817ff3f219928e7e2b83f56f7b95985f1ed2536476677d68511d2cbe9461a7741afe846040516108799190611390565b60405180910390a35050565b6000801b81565b600160009054906101000a900473ffffffffffffffffffffffffffffffffffffffff1673ffffffffffffffffffffffffffffffffffffffff166354b7636e336040518263ffffffff1660e01b81526004016108e79190611587565b602060405180830381865afa158015610904573d6000803e3d6000fd5b505050506040513d601f19601f8201168201806040525081019061092891906115ce565b610967576040517f08c379a000000000000000000000000000000000000000000000000000000000815260040161095e90611647565b60405180910390fd5b600260009054906101000a900473ffffffffffffffffffffffffffffffffffffffff1673ffffffffffffffffffffffffffffffffffffffff166323b872dd3330846040518463ffffffff1660e01b81526004016109c693929190611779565b6020604051808303816000875af11580156109e5573d6000803e3d6000fd5b505050506040513d601f19601f82011682018060405250810190610a0991906115ce565b5080600360003373ffffffffffffffffffffffffffffffffffffffff1673ffffffffffffffffffffffffffffffffffffffff1681526020019081526020016000206000828254610a5991906117b0565b925050819055503373ffffffffffffffffffffffffffffffffffffffff167fe1fffcc4923d04b559f4d29a8bfc6cda04eb5b0d3c460751c2402c5c5cc9109c82604051610aa69190611390565b60405180910390a250565b7fe28434228950b641dbbc0178de89daa359a87c6ee0d8399aeace52a98fe902b981565b610ade82610411565b610ae781610e86565b610af18383610f93565b50505050565b6000600360008373ffffffffffffffffffffffffffffffffffffffff1673ffffffffffffffffffffffffffffffffffffffff168152602001908152602001600020549050919050565b7fe28434228950b641dbbc0178de89daa359a87c6ee0d8399aeace52a98fe902b9610b6a81610e86565b600260046000868152602001908152602001600020541015610bc1576040517f08c379a0000000000000000000000000000000000000000000000000000000008152600401610bb890611830565b60405180910390fd5b81600360008573ffffffffffffffffffffffffffffffffffffffff1673ffffffffffffffffffffffffffffffffffffffff168152602001908152602001600020541015610c43576040517f08c379a0000000000000000000000000000000000000000000000000000000008152600401610c3a906116b3565b60405180910390fd5b6005600085815260200190815260200160002060009054906101000a900460ff1615610ca4576040517f08c379a0000000000000000000000000000000000000000000000000000000008152600401610c9b906114e1565b60405180910390fd5b60016005600086815260200190815260200160002060006101000a81548160ff02191690831515021790555081600360008573ffffffffffffffffffffffffffffffffffffffff1673ffffffffffffffffffffffffffffffffffffffff1681526020019081526020016000206000828254610d1f9190611850565b92505081905550600260009054906101000a900473ffffffffffffffffffffffffffffffffffffffff1673ffffffffffffffffffffffffffffffffffffffff1663a9059cbb84846040518363ffffffff1660e01b8152600401610d83929190611884565b6020604051808303816000875af1158015610da2573d6000803e3d6000fd5b505050506040513d601f19601f82011682018060405250810190610dc691906115ce565b508273ffffffffffffffffffffffffffffffffffffffff16847f9b500c765f0aa508908d3e165168183a5cef5acd68573acc126ce58c80ac6b3c84604051610e0e9190611390565b60405180910390a350505050565b60007f01ffc9a7000000000000000000000000000000000000000000000000000000007bffffffffffffffffffffffffffffffffffffffffffffffffffffffff1916827bffffffffffffffffffffffffffffffffffffffffffffffffffffffff1916149050919050565b610e9781610e92610f8b565b611085565b50565b6000610ea6838361063c565b610f8057600160008085815260200190815260200160002060000160008473ffffffffffffffffffffffffffffffffffffffff1673ffffffffffffffffffffffffffffffffffffffff16815260200190815260200160002060006101000a81548160ff021916908315150217905550610f1d610f8b565b73ffffffffffffffffffffffffffffffffffffffff168273ffffffffffffffffffffffffffffffffffffffff16847f2f8788117e7eff1d82e926ec794901d17c78024a50270940304540a733656f0d60405160405180910390a460019050610f85565b600090505b92915050565b600033905090565b6000610f9f838361063c565b1561107a57600080600085815260200190815260200160002060000160008473ffffffffffffffffffffffffffffffffffffffff1673ffffffffffffffffffffffffffffffffffffffff16815260200190815260200160002060006101000a81548160ff021916908315150217905550611017610f8b565b73ffffffffffffffffffffffffffffffffffffffff168273ffffffffffffffffffffffffffffffffffffffff16847ff6391f5c32d9c69d2a47ea670b442974b53935d1edc7fd64eb21e047a839171b60405160405180910390a46001905061107f565b600090505b92915050565b61108f828261063c565b6110d25780826040517fe2517d3f0000000000000000000000000000000000000000000000000000000081526004016110c99291906118ad565b60405180910390fd5b5050565b600080fd5b60007fffffffff0000000000000000000000000000000000000000000000000000000082169050919050565b611110816110db565b811461111b57600080fd5b50565b60008135905061112d81611107565b92915050565b600060208284031215611149576111486110d6565b5b60006111578482850161111e565b91505092915050565b60008115159050919050565b61117581611160565b82525050565b6000602082019050611190600083018461116c565b92915050565b600073ffffffffffffffffffffffffffffffffffffffff82169050919050565b6000819050919050565b60006111db6111d66111d184611196565b6111b6565b611196565b9050919050565b60006111ed826111c0565b9050919050565b60006111ff826111e2565b9050919050565b61120f816111f4565b82525050565b600060208201905061122a6000830184611206565b92915050565b6000819050919050565b61124381611230565b811461124e57600080fd5b50565b6000813590506112608161123a565b92915050565b60006020828403121561127c5761127b6110d6565b5b600061128a84828501611251565b91505092915050565b61129c81611230565b82525050565b60006020820190506112b76000830184611293565b92915050565b60006112c882611196565b9050919050565b6112d8816112bd565b81146112e357600080fd5b50565b6000813590506112f5816112cf565b92915050565b60008060408385031215611312576113116110d6565b5b600061132085828601611251565b9250506020611331858286016112e6565b9150509250929050565b6000611346826111e2565b9050919050565b6113568161133b565b82525050565b6000602082019050611371600083018461134d565b92915050565b6000819050919050565b61138a81611377565b82525050565b60006020820190506113a56000830184611381565b92915050565b6113b481611377565b81146113bf57600080fd5b50565b6000813590506113d1816113ab565b92915050565b6000602082840312156113ed576113ec6110d6565b5b60006113fb848285016113c2565b91505092915050565b60006020828403121561141a576114196110d6565b5b6000611428848285016112e6565b91505092915050565b60008060006060848603121561144a576114496110d6565b5b600061145886828701611251565b9350506020611469868287016112e6565b925050604061147a868287016113c2565b9150509250925092565b600082825260208201905092915050565b7f5472616e73616374696f6e20616c726561647920657865637574656400000000600082015250565b60006114cb601c83611484565b91506114d682611495565b602082019050919050565b600060208201905081810360008301526114fa816114be565b9050919050565b7f4e487b7100000000000000000000000000000000000000000000000000000000600052601160045260246000fd5b600061153b82611377565b91507fffffffffffffffffffffffffffffffffffffffffffffffffffffffffffffffff820361156d5761156c611501565b5b600182019050919050565b611581816112bd565b82525050565b600060208201905061159c6000830184611578565b92915050565b6115ab81611160565b81146115b657600080fd5b50565b6000815190506115c8816115a2565b92915050565b6000602082840312156115e4576115e36110d6565b5b60006115f2848285016115b9565b91505092915050565b7f55736572206973206e6f74204b59432076657269666965640000000000000000600082015250565b6000611631601883611484565b915061163c826115fb565b602082019050919050565b6000602082019050818103600083015261166081611624565b9050919050565b7f496e73756666696369656e742062616c616e6365000000000000000000000000600082015250565b600061169d601483611484565b91506116a882611667565b602082019050919050565b600060208201905081810360008301526116cc81611690565b9050919050565b60008160601b9050919050565b60006116eb826116d3565b9050919050565b60006116fd826116e0565b9050919050565b611715611710826112bd565b6116f2565b82525050565b6000819050919050565b61173661173182611377565b61171b565b82525050565b60006117488286611704565b6014820191506117588285611725565b6020820191506117688284611725565b602082019150819050949350505050565b600060608201905061178e6000830186611578565b61179b6020830185611578565b6117a86040830184611381565b949350505050565b60006117bb82611377565b91506117c683611377565b92508282019050808211156117de576117dd611501565b5b92915050565b7f4e6f7420656e6f75676820617070726f76616c73000000000000000000000000600082015250565b600061181a601483611484565b9150611825826117e4565b602082019050919050565b600060208201905081810360008301526118498161180d565b9050919050565b600061185b82611377565b915061186683611377565b925082820390508181111561187e5761187d611501565b5b92915050565b60006040820190506118996000830185611578565b6118a66020830184611381565b9392505050565b60006040820190506118c26000830185611578565b6118cf6020830184611293565b939250505056fea2646970667358221220c31bec8722baaf0fa57e6c5683593fd4d2e0ef09e7f9174cead49156114464c064736f6c63430008140033",
  "linkReferences": {},
  "deployedLinkReferences": {}
}