{
  "_format": "hh-sol-artifact-1",
  "contractName": "Marketplace",
  "sourceName": "contracts/Marketplace.sol",
  "abi": [
    {
      "inputs": [
        {
          "internalType": "address",
          "name": "kycRegistryAddress",
          "type": "address"
        },
        {
          "internalType": "address",
          "name": "tokenAddress",
          "type": "address"
        },
        {
          "internalType": "address",
          "name": "priceFeedAddress",
          "type": "address"
        }
      ],
      "stateMutability": "nonpayable",
      "type": "constructor"
    },
    {
      "inputs": [],
      "name": "AccessControlBadConfirmation",
      "type": "error"
    },
    {
      "inputs": [
        {
          "internalType": "address",
          "name": "account",
          "type": "address"
        },
        {
          "internalType": "bytes32",
          "name": "neededRole",
          "type": "bytes32"
        }
      ],
      "name": "AccessControlUnauthorizedAccount",
      "type": "error"
    },
    {
      "anonymous": false,
      "inputs": [
        {
          "indexed": true,
          "internalType": "uint256",
          "name": "auctionId",
          "type": "uint256"
        },
        {
          "indexed": true,
          "internalType": "address",
          "name": "winner",
          "type": "address"
        },
        {
          "indexed": false,
          "internalType": "uint256",
          "name": "winningBid",
          "type": "uint256"
        }
      ],
      "name": "AuctionEnded",
      "type": "event"
    },
    {
      "anonymous": false,
      "inputs": [
        {
          "indexed": true,
          "internalType": "uint256",
          "name": "auctionId",
          "type": "uint256"
        },
        {
          "indexed": true,
          "internalType": "address",
          "name": "seller",
          "type": "address"
        },
        {
          "indexed": false,
          "internalType": "uint256",
          "name": "amount",
          "type": "uint256"
        },
        {
          "indexed": false,
          "internalType": "uint256",
          "name": "minBid",
          "type": "uint256"
        },
        {
          "indexed": false,
          "internalType": "uint256",
          "name": "endTime",
          "type": "uint256"
        }
      ],
      "name": "AuctionStarted",
      "type": "event"
    },
    {
      "anonymous": false,
      "inputs": [
        {
          "indexed": true,
          "internalType": "uint256",
          "name": "listingId",
          "type": "uint256"
        }
      ],
      "name": "Cancelled",
      "type": "event"
    },
    {
      "anonymous": false,
      "inputs": [
        {
          "indexed": true,
          "internalType": "uint256",
          "name": "listingId",
          "type": "uint256"
        },
        {
          "indexed": true,
          "internalType": "address",
          "name": "seller",
          "type": "address"
        },
        {
          "indexed": false,
          "internalType": "uint256",
          "name": "amount",
          "type": "uint256"
        },
        {
          "indexed": false,
          "internalType": "uint256",
          "name": "priceInUSD",
          "type": "uint256"
        }
      ],
      "name": "Listed",
      "type": "event"
    },
    {
      "anonymous": false,
      "inputs": [
        {
          "indexed": true,
          "internalType": "uint256",
          "name": "auctionId",
          "type": "uint256"
        },
        {
          "indexed": true,
          "internalType": "address",
          "name": "bidder",
          "type": "address"
        },
        {
          "indexed": false,
          "internalType": "uint256",
          "name": "bidAmount",
          "type": "uint256"
        }
      ],
      "name": "NewBid",
      "type": "event"
    },
    {
      "anonymous": false,
      "inputs": [
        {
          "indexed": true,
          "internalType": "bytes32",
          "name": "role",
          "type": "bytes32"
        },
        {
          "indexed": true,
          "internalType": "bytes32",
          "name": "previousAdminRole",
          "type": "bytes32"
        },
        {
          "indexed": true,
          "internalType": "bytes32",
          "name": "newAdminRole",
          "type": "bytes32"
        }
      ],
      "name": "RoleAdminChanged",
      "type": "event"
    },
    {
      "anonymous": false,
      "inputs": [
        {
          "indexed": true,
          "internalType": "bytes32",
          "name": "role",
          "type": "bytes32"
        },
        {
          "indexed": true,
          "internalType": "address",
          "name": "account",
          "type": "address"
        },
        {
          "indexed": true,
          "internalType": "address",
          "name": "sender",
          "type": "address"
        }
      ],
      "name": "RoleGranted",
      "type": "event"
    },
    {
      "anonymous": false,
      "inputs": [
        {
          "indexed": true,
          "internalType": "bytes32",
          "name": "role",
          "type": "bytes32"
        },
        {
          "indexed": true,
          "internalType": "address",
          "name": "account",
          "type": "address"
        },
        {
          "indexed": true,
          "internalType": "address",
          "name": "sender",
          "type": "address"
        }
      ],
      "name": "RoleRevoked",
      "type": "event"
    },
    {
      "anonymous": false,
      "inputs": [
        {
          "indexed": true,
          "internalType": "uint256",
          "name": "listingId",
          "type": "uint256"
        },
        {
          "indexed": true,
          "internalType": "address",
          "name": "buyer",
          "type": "address"
        },
        {
          "indexed": false,
          "internalType": "uint256",
          "name": "amount",
          "type": "uint256"
        }
      ],
      "name": "Sold",
      "type": "event"
    },
    {
      "inputs": [],
      "name": "ADMIN_ROLE",
      "outputs": [
        {
          "internalType": "bytes32",
          "name": "",
          "type": "bytes32"
        }
      ],
      "stateMutability": "view",
      "type": "function"
    },
    {
      "inputs": [],
      "name": "DEFAULT_ADMIN_ROLE",
      "outputs": [
        {
          "internalType": "bytes32",
          "name": "",
          "type": "bytes32"
        }
      ],
      "stateMutability": "view",
      "type": "function"
    },
    {
      "inputs": [],
      "name": "auctionCounter",
      "outputs": [
        {
          "internalType": "uint256",
          "name": "",
          "type": "uint256"
        }
      ],
      "stateMutability": "view",
      "type": "function"
    },
    {
      "inputs": [
        {
          "internalType": "uint256",
          "name": "",
          "type": "uint256"
        }
      ],
      "name": "auctions",
      "outputs": [
        {
          "internalType": "address",
          "name": "seller",
          "type": "address"
        },
        {
          "internalType": "uint256",
          "name": "amount",
          "type": "uint256"
        },
        {
          "internalType": "uint256",
          "name": "minBid",
          "type": "uint256"
        },
        {
          "internalType": "uint256",
          "name": "highestBid",
          "type": "uint256"
        },
        {
          "internalType": "address",
          "name": "highestBidder",
          "type": "address"
        },
        {
          "internalType": "uint256",
          "name": "endTime",
          "type": "uint256"
        },
        {
          "internalType": "bool",
          "name": "active",
          "type": "bool"
        }
      ],
      "stateMutability": "view",
      "type": "function"
    },
    {
      "inputs": [
        {
          "internalType": "uint256",
          "name": "listingId",
          "type": "uint256"
        }
      ],
      "name": "buyAsset",
      "outputs": [],
      "stateMutability": "payable",
      "type": "function"
    },
    {
      "inputs": [
        {
          "internalType": "uint256",
          "name": "listingId",
          "type": "uint256"
        }
      ],
      "name": "cancelListing",
      "outputs": [],
      "stateMutability": "nonpayable",
      "type": "function"
    },
    {
      "inputs": [
        {
          "internalType": "uint256",
          "name": "auctionId",
          "type": "uint256"
        }
      ],
      "name": "endAuction",
      "outputs": [],
      "stateMutability": "nonpayable",
      "type": "function"
    },
    {
      "inputs": [
        {
          "internalType": "uint256",
          "name": "priceInUSD",
          "type": "uint256"
        }
      ],
      "name": "getPriceInETH",
      "outputs": [
        {
          "internalType": "uint256",
          "name": "",
          "type": "uint256"
        }
      ],
      "stateMutability": "view",
      "type": "function"
    },
    {
      "inputs": [
        {
          "internalType": "bytes32",
          "name": "role",
          "type": "bytes32"
        }
      ],
      "name": "getRoleAdmin",
      "outputs": [
        {
          "internalType": "bytes32",
          "name": "",
          "type": "bytes32"
        }
      ],
      "stateMutability": "view",
      "type": "function"
    },
    {
      "inputs": [
        {
          "internalType": "bytes32",
          "name": "role",
          "type": "bytes32"
        },
        {
          "internalType": "address",
          "name": "account",
          "type": "address"
        }
      ],
      "name": "grantRole",
      "outputs": [],
      "stateMutability": "nonpayable",
      "type": "function"
    },
    {
      "inputs": [
        {
          "internalType": "bytes32",
          "name": "role",
          "type": "bytes32"
        },
        {
          "internalType": "address",
          "name": "account",
          "type": "address"
        }
      ],
      "name": "hasRole",
      "outputs": [
        {
          "internalType": "bool",
          "name": "",
          "type": "bool"
        }
      ],
      "stateMutability": "view",
      "type": "function"
    },
    {
      "inputs": [],
      "name": "kycRegistry",
      "outputs": [
        {
          "internalType": "contract IKYCRegistry",
          "name": "",
          "type": "address"
        }
      ],
      "stateMutability": "view",
      "type": "function"
    },
    {
      "inputs": [
        {
          "internalType": "uint256",
          "name": "amount",
          "type": "uint256"
        },
        {
          "internalType": "uint256",
          "name": "priceInUSD",
          "type": "uint256"
        }
      ],
      "name": "listAsset",
      "outputs": [],
      "stateMutability": "nonpayable",
      "type": "function"
    },
    {
      "inputs": [],
      "name": "listingCounter",
      "outputs": [
        {
          "internalType": "uint256",
          "name": "",
          "type": "uint256"
        }
      ],
      "stateMutability": "view",
      "type": "function"
    },
    {
      "inputs": [
        {
          "internalType": "uint256",
          "name": "",
          "type": "uint256"
        }
      ],
      "name": "listings",
      "outputs": [
        {
          "internalType": "address",
          "name": "seller",
          "type": "address"
        },
        {
          "internalType": "uint256",
          "name": "amount",
          "type": "uint256"
        },
        {
          "internalType": "uint256",
          "name": "priceInUSD",
          "type": "uint256"
        },
        {
          "internalType": "bool",
          "name": "active",
          "type": "bool"
        }
      ],
      "stateMutability": "view",
      "type": "function"
    },
    {
      "inputs": [
        {
          "internalType": "uint256",
          "name": "auctionId",
          "type": "uint256"
        }
      ],
      "name": "placeBid",
      "outputs": [],
      "stateMutability": "payable",
      "type": "function"
    },
    {
      "inputs": [],
      "name": "priceFeed",
      "outputs": [
        {
          "internalType": "contract AggregatorV3Interface",
          "name": "",
          "type": "address"
        }
      ],
      "stateMutability": "view",
      "type": "function"
    },
    {
      "inputs": [
        {
          "internalType": "bytes32",
          "name": "role",
          "type": "bytes32"
        },
        {
          "internalType": "address",
          "name": "callerConfirmation",
          "type": "address"
        }
      ],
      "name": "renounceRole",
      "outputs": [],
      "stateMutability": "nonpayable",
      "type": "function"
    },
    {
      "inputs": [
        {
          "internalType": "bytes32",
          "name": "role",
          "type": "bytes32"
        },
        {
          "internalType": "address",
          "name": "account",
          "type": "address"
        }
      ],
      "name": "revokeRole",
      "outputs": [],
      "stateMutability": "nonpayable",
      "type": "function"
    },
    {
      "inputs": [],
      "name": "rwaToken",
      "outputs": [
        {
          "internalType": "contract ERC3643Token",
          "name": "",
          "type": "address"
        }
      ],
      "stateMutability": "view",
      "type": "function"
    },
    {
      "inputs": [
        {
          "internalType": "uint256",
          "name": "amount",
          "type": "uint256"
        },
        {
          "internalType": "uint256",
          "name": "minBid",
          "type": "uint256"
        },
        {
          "internalType": "uint256",
          "name": "duration",
          "type": "uint256"
        }
      ],
      "name": "startAuction",
      "outputs": [],
      "stateMutability": "nonpayable",
      "type": "function"
    },
    {
      "inputs": [
        {
          "internalType": "bytes4",
          "name": "interfaceId",
          "type": "bytes4"
        }
      ],
      "name": "supportsInterface",
      "outputs": [
        {
          "internalType": "bool",
          "name": "",
          "type": "bool"
        }
      ],
      "stateMutability": "view",
      "type": "function"
    }
  ],
  "bytecode": "0x60806040523480156200001157600080fd5b50604051620031b3380380620031b3833981810160405281019062000037919062000315565b620000697fa49807205ce4d355092ef5a8a18f56e8913cf4a201fbe287825b095693c21775336200013660201b60201c565b5082600160006101000a81548173ffffffffffffffffffffffffffffffffffffffff021916908373ffffffffffffffffffffffffffffffffffffffff16021790555081600260006101000a81548173ffffffffffffffffffffffffffffffffffffffff021916908373ffffffffffffffffffffffffffffffffffffffff16021790555080600360006101000a81548173ffffffffffffffffffffffffffffffffffffffff021916908373ffffffffffffffffffffffffffffffffffffffff16021790555050505062000371565b60006200014a83836200023960201b60201c565b6200022e57600160008085815260200190815260200160002060000160008473ffffffffffffffffffffffffffffffffffffffff1673ffffffffffffffffffffffffffffffffffffffff16815260200190815260200160002060006101000a81548160ff021916908315150217905550620001ca620002a360201b60201c565b73ffffffffffffffffffffffffffffffffffffffff168273ffffffffffffffffffffffffffffffffffffffff16847f2f8788117e7eff1d82e926ec794901d17c78024a50270940304540a733656f0d60405160405180910390a46001905062000233565b600090505b92915050565b600080600084815260200190815260200160002060000160008373ffffffffffffffffffffffffffffffffffffffff1673ffffffffffffffffffffffffffffffffffffffff16815260200190815260200160002060009054906101000a900460ff16905092915050565b600033905090565b600080fd5b600073ffffffffffffffffffffffffffffffffffffffff82169050919050565b6000620002dd82620002b0565b9050919050565b620002ef81620002d0565b8114620002fb57600080fd5b50565b6000815190506200030f81620002e4565b92915050565b600080600060608486031215620003315762000330620002ab565b5b60006200034186828701620002fe565b93505060206200035486828701620002fe565b92505060406200036786828701620002fe565b9150509250925092565b612e3280620003816000396000f3fe6080604052600436106101355760003560e01c8063741bef1a116100ab5780639979ef451161006f5780639979ef4514610431578063a217fddf1461044d578063a7e7664414610478578063b9a2de3a146104a3578063d547741f146104cc578063de74e57b146104f557610135565b8063741bef1a1461034c57806375b238fc146103775780637bad9a3e146103a257806391d14854146103cb57806391e078bb1461040857610135565b80632f2ff15d116100fd5780632f2ff15d14610238578063305a67a81461026157806336568abe1461028a5780634b155b97146102b3578063571a26a0146102de5780636c2c9c7d1461032157610135565b806301ffc9a71461013a5780630441b220146101775780630c5bf351146101b4578063110d35b8146101df578063248a9ca3146101fb575b600080fd5b34801561014657600080fd5b50610161600480360381019061015c9190612073565b610535565b60405161016e91906120bb565b60405180910390f35b34801561018357600080fd5b5061019e6004803603810190610199919061210c565b6105af565b6040516101ab9190612148565b60405180910390f35b3480156101c057600080fd5b506101c96106b3565b6040516101d691906121e2565b60405180910390f35b6101f960048036038101906101f4919061210c565b6106d9565b005b34801561020757600080fd5b50610222600480360381019061021d9190612233565b6109ef565b60405161022f919061226f565b60405180910390f35b34801561024457600080fd5b5061025f600480360381019061025a91906122c8565b610a0e565b005b34801561026d57600080fd5b506102886004803603810190610283919061210c565b610a30565b005b34801561029657600080fd5b506102b160048036038101906102ac91906122c8565b610c41565b005b3480156102bf57600080fd5b506102c8610cbc565b6040516102d59190612329565b60405180910390f35b3480156102ea57600080fd5b506103056004803603810190610300919061210c565b610ce2565b6040516103189796959493929190612353565b60405180910390f35b34801561032d57600080fd5b50610336610d71565b6040516103439190612148565b60405180910390f35b34801561035857600080fd5b50610361610d77565b60405161036e91906123e3565b60405180910390f35b34801561038357600080fd5b5061038c610d9d565b604051610399919061226f565b60405180910390f35b3480156103ae57600080fd5b506103c960048036038101906103c491906123fe565b610dc1565b005b3480156103d757600080fd5b506103f260048036038101906103ed91906122c8565b611159565b6040516103ff91906120bb565b60405180910390f35b34801561041457600080fd5b5061042f600480360381019061042a919061243e565b6111c3565b005b61044b6004803603810190610446919061210c565b6115f4565b005b34801561045957600080fd5b5061046261192a565b60405161046f919061226f565b60405180910390f35b34801561048457600080fd5b5061048d611931565b60405161049a9190612148565b60405180910390f35b3480156104af57600080fd5b506104ca60048036038101906104c5919061210c565b611937565b005b3480156104d857600080fd5b506104f360048036038101906104ee91906122c8565b611cdd565b005b34801561050157600080fd5b5061051c6004803603810190610517919061210c565b611cff565b60405161052c9493929190612491565b60405180910390f35b60007f7965db0b000000000000000000000000000000000000000000000000000000007bffffffffffffffffffffffffffffffffffffffffffffffffffffffff1916827bffffffffffffffffffffffffffffffffffffffffffffffffffffffff191614806105a857506105a782611d5c565b5b9050919050565b600080600360009054906101000a900473ffffffffffffffffffffffffffffffffffffffff1673ffffffffffffffffffffffffffffffffffffffff1663feaf968c6040518163ffffffff1660e01b815260040160a060405180830381865afa15801561061f573d6000803e3d6000fd5b505050506040513d601f19601f820116820180604052508101906106439190612563565b5050509150506000811361068c576040517f08c379a00000000000000000000000000000000000000000000000000000000081526004016106839061263b565b60405180910390fd5b80670de0b6b3a7640000846106a1919061268a565b6106ab91906126fb565b915050919050565b600260009054906101000a900473ffffffffffffffffffffffffffffffffffffffff1681565b6000600460008381526020019081526020016000209050600160009054906101000a900473ffffffffffffffffffffffffffffffffffffffff1673ffffffffffffffffffffffffffffffffffffffff166354b7636e336040518263ffffffff1660e01b815260040161074b919061272c565b602060405180830381865afa158015610768573d6000803e3d6000fd5b505050506040513d601f19601f8201168201806040525081019061078c9190612773565b6107cb576040517f08c379a00000000000000000000000000000000000000000000000000000000081526004016107c2906127ec565b60405180910390fd5b8060030160009054906101000a900460ff1661081c576040517f08c379a000000000000000000000000000000000000000000000000000000000815260040161081390612858565b60405180910390fd5b61082981600201546105af565b34101561086b576040517f08c379a0000000000000000000000000000000000000000000000000000000008152600401610862906128c4565b60405180910390fd5b60008160030160006101000a81548160ff021916908315150217905550600260009054906101000a900473ffffffffffffffffffffffffffffffffffffffff1673ffffffffffffffffffffffffffffffffffffffff1663a9059cbb3383600101546040518363ffffffff1660e01b81526004016108e99291906128e4565b6020604051808303816000875af1158015610908573d6000803e3d6000fd5b505050506040513d601f19601f8201168201806040525081019061092c9190612773565b508060000160009054906101000a900473ffffffffffffffffffffffffffffffffffffffff1673ffffffffffffffffffffffffffffffffffffffff166108fc349081150290604051600060405180830381858888f19350505050158015610997573d6000803e3d6000fd5b503373ffffffffffffffffffffffffffffffffffffffff16827f66f5cd880edf48cdde6c966e5da0784fcc4c5e85572b8b3b62c4357798d447d783600101546040516109e39190612148565b60405180910390a35050565b6000806000838152602001908152602001600020600101549050919050565b610a17826109ef565b610a2081611dc6565b610a2a8383611dda565b50505050565b60006004600083815260200190815260200160002090508060000160009054906101000a900473ffffffffffffffffffffffffffffffffffffffff1673ffffffffffffffffffffffffffffffffffffffff163373ffffffffffffffffffffffffffffffffffffffff1614610ad9576040517f08c379a0000000000000000000000000000000000000000000000000000000008152600401610ad090612959565b60405180910390fd5b8060030160009054906101000a900460ff16610b2a576040517f08c379a0000000000000000000000000000000000000000000000000000000008152600401610b2190612858565b60405180910390fd5b60008160030160006101000a81548160ff021916908315150217905550600260009054906101000a900473ffffffffffffffffffffffffffffffffffffffff1673ffffffffffffffffffffffffffffffffffffffff1663a9059cbb8260000160009054906101000a900473ffffffffffffffffffffffffffffffffffffffff1683600101546040518363ffffffff1660e01b8152600401610bcc9291906128e4565b6020604051808303816000875af1158015610beb573d6000803e3d6000fd5b505050506040513d601f19601f82011682018060405250810190610c0f9190612773565b50817fc41d93b8bfbf9fd7cf5bfe271fd649ab6a6fec0ea101c23b82a2a28eca2533a960405160405180910390a25050565b610c49611ecb565b73ffffffffffffffffffffffffffffffffffffffff168173ffffffffffffffffffffffffffffffffffffffff1614610cad576040517f6697b23200000000000000000000000000000000000000000000000000000000815260040160405180910390fd5b610cb78282611ed3565b505050565b600160009054906101000a900473ffffffffffffffffffffffffffffffffffffffff1681565b60056020528060005260406000206000915090508060000160009054906101000a900473ffffffffffffffffffffffffffffffffffffffff16908060010154908060020154908060030154908060040160009054906101000a900473ffffffffffffffffffffffffffffffffffffffff16908060050154908060060160009054906101000a900460ff16905087565b60065481565b600360009054906101000a900473ffffffffffffffffffffffffffffffffffffffff1681565b7fa49807205ce4d355092ef5a8a18f56e8913cf4a201fbe287825b095693c2177581565b600160009054906101000a900473ffffffffffffffffffffffffffffffffffffffff1673ffffffffffffffffffffffffffffffffffffffff166354b7636e336040518263ffffffff1660e01b8152600401610e1c919061272c565b602060405180830381865afa158015610e39573d6000803e3d6000fd5b505050506040513d601f19601f82011682018060405250810190610e5d9190612773565b610e9c576040517f08c379a0000000000000000000000000000000000000000000000000000000008152600401610e93906129c5565b60405180910390fd5b81600260009054906101000a900473ffffffffffffffffffffffffffffffffffffffff1673ffffffffffffffffffffffffffffffffffffffff166370a08231336040518263ffffffff1660e01b8152600401610ef8919061272c565b602060405180830381865afa158015610f15573d6000803e3d6000fd5b505050506040513d601f19601f82011682018060405250810190610f3991906129e5565b1015610f7a576040517f08c379a0000000000000000000000000000000000000000000000000000000008152600401610f7190612a5e565b60405180910390fd5b600260009054906101000a900473ffffffffffffffffffffffffffffffffffffffff1673ffffffffffffffffffffffffffffffffffffffff166323b872dd3330856040518463ffffffff1660e01b8152600401610fd993929190612a7e565b6020604051808303816000875af1158015610ff8573d6000803e3d6000fd5b505050506040513d601f19601f8201168201806040525081019061101c9190612773565b5060405180608001604052803373ffffffffffffffffffffffffffffffffffffffff1681526020018381526020018281526020016001151581525060046000600654815260200190815260200160002060008201518160000160006101000a81548173ffffffffffffffffffffffffffffffffffffffff021916908373ffffffffffffffffffffffffffffffffffffffff160217905550602082015181600101556040820151816002015560608201518160030160006101000a81548160ff0219169083151502179055509050503373ffffffffffffffffffffffffffffffffffffffff166006547f98868c46d49b200d82c273c9f28d73265826ca6567690262736450563dfff64c8484604051611135929190612ab5565b60405180910390a36006600081548092919061115090612ade565b91905055505050565b600080600084815260200190815260200160002060000160008373ffffffffffffffffffffffffffffffffffffffff1673ffffffffffffffffffffffffffffffffffffffff16815260200190815260200160002060009054906101000a900460ff16905092915050565b600160009054906101000a900473ffffffffffffffffffffffffffffffffffffffff1673ffffffffffffffffffffffffffffffffffffffff166354b7636e336040518263ffffffff1660e01b815260040161121e919061272c565b602060405180830381865afa15801561123b573d6000803e3d6000fd5b505050506040513d601f19601f8201168201806040525081019061125f9190612773565b61129e576040517f08c379a0000000000000000000000000000000000000000000000000000000008152600401611295906129c5565b60405180910390fd5b82600260009054906101000a900473ffffffffffffffffffffffffffffffffffffffff1673ffffffffffffffffffffffffffffffffffffffff166370a08231336040518263ffffffff1660e01b81526004016112fa919061272c565b602060405180830381865afa158015611317573d6000803e3d6000fd5b505050506040513d601f19601f8201168201806040525081019061133b91906129e5565b101561137c576040517f08c379a000000000000000000000000000000000000000000000000000000000815260040161137390612a5e565b60405180910390fd5b600260009054906101000a900473ffffffffffffffffffffffffffffffffffffffff1673ffffffffffffffffffffffffffffffffffffffff166323b872dd3330866040518463ffffffff1660e01b81526004016113db93929190612a7e565b6020604051808303816000875af11580156113fa573d6000803e3d6000fd5b505050506040513d601f19601f8201168201806040525081019061141e9190612773565b506000814261142d9190612b26565b90506040518060e001604052803373ffffffffffffffffffffffffffffffffffffffff16815260200185815260200184815260200160008152602001600073ffffffffffffffffffffffffffffffffffffffff1681526020018281526020016001151581525060056000600754815260200190815260200160002060008201518160000160006101000a81548173ffffffffffffffffffffffffffffffffffffffff021916908373ffffffffffffffffffffffffffffffffffffffff16021790555060208201518160010155604082015181600201556060820151816003015560808201518160040160006101000a81548173ffffffffffffffffffffffffffffffffffffffff021916908373ffffffffffffffffffffffffffffffffffffffff16021790555060a0820151816005015560c08201518160060160006101000a81548160ff0219169083151502179055509050503373ffffffffffffffffffffffffffffffffffffffff166007547f891c95c01123dab4c2e9f5730be4341f0389880525f5d7c2a645a77555c27ff78686856040516115ce93929190612b5a565b60405180910390a3600760008154809291906115e990612ade565b919050555050505050565b6000600560008381526020019081526020016000209050600160009054906101000a900473ffffffffffffffffffffffffffffffffffffffff1673ffffffffffffffffffffffffffffffffffffffff166354b7636e336040518263ffffffff1660e01b8152600401611666919061272c565b602060405180830381865afa158015611683573d6000803e3d6000fd5b505050506040513d601f19601f820116820180604052508101906116a79190612773565b6116e6576040517f08c379a00000000000000000000000000000000000000000000000000000000081526004016116dd90612bdd565b60405180910390fd5b8060060160009054906101000a900460ff16611737576040517f08c379a000000000000000000000000000000000000000000000000000000000815260040161172e90612c49565b60405180910390fd5b8060050154421061177d576040517f08c379a000000000000000000000000000000000000000000000000000000000815260040161177490612cb5565b60405180910390fd5b806003015434116117c3576040517f08c379a00000000000000000000000000000000000000000000000000000000081526004016117ba90612d47565b60405180910390fd5b600073ffffffffffffffffffffffffffffffffffffffff168160040160009054906101000a900473ffffffffffffffffffffffffffffffffffffffff1673ffffffffffffffffffffffffffffffffffffffff161461188b578060040160009054906101000a900473ffffffffffffffffffffffffffffffffffffffff1673ffffffffffffffffffffffffffffffffffffffff166108fc82600301549081150290604051600060405180830381858888f19350505050158015611889573d6000803e3d6000fd5b505b348160030181905550338160040160006101000a81548173ffffffffffffffffffffffffffffffffffffffff021916908373ffffffffffffffffffffffffffffffffffffffff1602179055503373ffffffffffffffffffffffffffffffffffffffff16827f558a0d5d5468d74b0db24c74eb348b42271c2ebb4c9e953ced38aaed95fa43613460405161191e9190612148565b60405180910390a35050565b6000801b81565b60075481565b60006005600083815260200190815260200160002090508060050154421015611995576040517f08c379a000000000000000000000000000000000000000000000000000000000815260040161198c90612db3565b60405180910390fd5b8060060160009054906101000a900460ff166119e6576040517f08c379a00000000000000000000000000000000000000000000000000000000081526004016119dd90612c49565b60405180910390fd5b60008160060160006101000a81548160ff021916908315150217905550600073ffffffffffffffffffffffffffffffffffffffff168160040160009054906101000a900473ffffffffffffffffffffffffffffffffffffffff1673ffffffffffffffffffffffffffffffffffffffff1614611c0f57600260009054906101000a900473ffffffffffffffffffffffffffffffffffffffff1673ffffffffffffffffffffffffffffffffffffffff1663a9059cbb8260040160009054906101000a900473ffffffffffffffffffffffffffffffffffffffff1683600101546040518363ffffffff1660e01b8152600401611ae09291906128e4565b6020604051808303816000875af1158015611aff573d6000803e3d6000fd5b505050506040513d601f19601f82011682018060405250810190611b239190612773565b508060000160009054906101000a900473ffffffffffffffffffffffffffffffffffffffff1673ffffffffffffffffffffffffffffffffffffffff166108fc82600301549081150290604051600060405180830381858888f19350505050158015611b92573d6000803e3d6000fd5b508060040160009054906101000a900473ffffffffffffffffffffffffffffffffffffffff1673ffffffffffffffffffffffffffffffffffffffff16827fd2aa34a4fdbbc6dff6a3e56f46e0f3ae2a31d7785ff3487aa5c95c642acea5018360030154604051611c029190612148565b60405180910390a3611cd9565b600260009054906101000a900473ffffffffffffffffffffffffffffffffffffffff1673ffffffffffffffffffffffffffffffffffffffff1663a9059cbb8260000160009054906101000a900473ffffffffffffffffffffffffffffffffffffffff1683600101546040518363ffffffff1660e01b8152600401611c949291906128e4565b6020604051808303816000875af1158015611cb3573d6000803e3d6000fd5b505050506040513d601f19601f82011682018060405250810190611cd79190612773565b505b5050565b611ce6826109ef565b611cef81611dc6565b611cf98383611ed3565b50505050565b60046020528060005260406000206000915090508060000160009054906101000a900473ffffffffffffffffffffffffffffffffffffffff16908060010154908060020154908060030160009054906101000a900460ff16905084565b60007f01ffc9a7000000000000000000000000000000000000000000000000000000007bffffffffffffffffffffffffffffffffffffffffffffffffffffffff1916827bffffffffffffffffffffffffffffffffffffffffffffffffffffffff1916149050919050565b611dd781611dd2611ecb565b611fc5565b50565b6000611de68383611159565b611ec057600160008085815260200190815260200160002060000160008473ffffffffffffffffffffffffffffffffffffffff1673ffffffffffffffffffffffffffffffffffffffff16815260200190815260200160002060006101000a81548160ff021916908315150217905550611e5d611ecb565b73ffffffffffffffffffffffffffffffffffffffff168273ffffffffffffffffffffffffffffffffffffffff16847f2f8788117e7eff1d82e926ec794901d17c78024a50270940304540a733656f0d60405160405180910390a460019050611ec5565b600090505b92915050565b600033905090565b6000611edf8383611159565b15611fba57600080600085815260200190815260200160002060000160008473ffffffffffffffffffffffffffffffffffffffff1673ffffffffffffffffffffffffffffffffffffffff16815260200190815260200160002060006101000a81548160ff021916908315150217905550611f57611ecb565b73ffffffffffffffffffffffffffffffffffffffff168273ffffffffffffffffffffffffffffffffffffffff16847ff6391f5c32d9c69d2a47ea670b442974b53935d1edc7fd64eb21e047a839171b60405160405180910390a460019050611fbf565b600090505b92915050565b611fcf8282611159565b6120125780826040517fe2517d3f000000000000000000000000000000000000000000000000000000008152600401612009929190612dd3565b60405180910390fd5b5050565b600080fd5b60007fffffffff0000000000000000000000000000000000000000000000000000000082169050919050565b6120508161201b565b811461205b57600080fd5b50565b60008135905061206d81612047565b92915050565b60006020828403121561208957612088612016565b5b60006120978482850161205e565b91505092915050565b60008115159050919050565b6120b5816120a0565b82525050565b60006020820190506120d060008301846120ac565b92915050565b6000819050919050565b6120e9816120d6565b81146120f457600080fd5b50565b600081359050612106816120e0565b92915050565b60006020828403121561212257612121612016565b5b6000612130848285016120f7565b91505092915050565b612142816120d6565b82525050565b600060208201905061215d6000830184612139565b92915050565b600073ffffffffffffffffffffffffffffffffffffffff82169050919050565b6000819050919050565b60006121a86121a361219e84612163565b612183565b612163565b9050919050565b60006121ba8261218d565b9050919050565b60006121cc826121af565b9050919050565b6121dc816121c1565b82525050565b60006020820190506121f760008301846121d3565b92915050565b6000819050919050565b612210816121fd565b811461221b57600080fd5b50565b60008135905061222d81612207565b92915050565b60006020828403121561224957612248612016565b5b60006122578482850161221e565b91505092915050565b612269816121fd565b82525050565b60006020820190506122846000830184612260565b92915050565b600061229582612163565b9050919050565b6122a58161228a565b81146122b057600080fd5b50565b6000813590506122c28161229c565b92915050565b600080604083850312156122df576122de612016565b5b60006122ed8582860161221e565b92505060206122fe858286016122b3565b9150509250929050565b6000612313826121af565b9050919050565b61232381612308565b82525050565b600060208201905061233e600083018461231a565b92915050565b61234d8161228a565b82525050565b600060e082019050612368600083018a612344565b6123756020830189612139565b6123826040830188612139565b61238f6060830187612139565b61239c6080830186612344565b6123a960a0830185612139565b6123b660c08301846120ac565b98975050505050505050565b60006123cd826121af565b9050919050565b6123dd816123c2565b82525050565b60006020820190506123f860008301846123d4565b92915050565b6000806040838503121561241557612414612016565b5b6000612423858286016120f7565b9250506020612434858286016120f7565b9150509250929050565b60008060006060848603121561245757612456612016565b5b6000612465868287016120f7565b9350506020612476868287016120f7565b9250506040612487868287016120f7565b9150509250925092565b60006080820190506124a66000830187612344565b6124b36020830186612139565b6124c06040830185612139565b6124cd60608301846120ac565b95945050505050565b600069ffffffffffffffffffff82169050919050565b6124f5816124d6565b811461250057600080fd5b50565b600081519050612512816124ec565b92915050565b6000819050919050565b61252b81612518565b811461253657600080fd5b50565b60008151905061254881612522565b92915050565b60008151905061255d816120e0565b92915050565b600080600080600060a0868803121561257f5761257e612016565b5b600061258d88828901612503565b955050602061259e88828901612539565b94505060406125af8882890161254e565b93505060606125c08882890161254e565b92505060806125d188828901612503565b9150509295509295909350565b600082825260208201905092915050565b7f496e76616c696420707269636520666565640000000000000000000000000000600082015250565b60006126256012836125de565b9150612630826125ef565b602082019050919050565b6000602082019050818103600083015261265481612618565b9050919050565b7f4e487b7100000000000000000000000000000000000000000000000000000000600052601160045260246000fd5b6000612695826120d6565b91506126a0836120d6565b92508282026126ae816120d6565b915082820484148315176126c5576126c461265b565b5b5092915050565b7f4e487b7100000000000000000000000000000000000000000000000000000000600052601260045260246000fd5b6000612706826120d6565b9150612711836120d6565b925082612721576127206126cc565b5b828204905092915050565b60006020820190506127416000830184612344565b92915050565b612750816120a0565b811461275b57600080fd5b50565b60008151905061276d81612747565b92915050565b60006020828403121561278957612788612016565b5b60006127978482850161275e565b91505092915050565b7f4275796572206d757374206265204b5943207665726966696564000000000000600082015250565b60006127d6601a836125de565b91506127e1826127a0565b602082019050919050565b60006020820190508181036000830152612805816127c9565b9050919050565b7f4c697374696e67206973206e6f74206163746976650000000000000000000000600082015250565b60006128426015836125de565b915061284d8261280c565b602082019050919050565b6000602082019050818103600083015261287181612835565b9050919050565b7f496e73756666696369656e74207061796d656e74000000000000000000000000600082015250565b60006128ae6014836125de565b91506128b982612878565b602082019050919050565b600060208201905081810360008301526128dd816128a1565b9050919050565b60006040820190506128f96000830185612344565b6129066020830184612139565b9392505050565b7f4f6e6c792073656c6c65722063616e2063616e63656c00000000000000000000600082015250565b60006129436016836125de565b915061294e8261290d565b602082019050919050565b6000602082019050818103600083015261297281612936565b9050919050565b7f53656c6c6572206d757374206265204b59432076657269666965640000000000600082015250565b60006129af601b836125de565b91506129ba82612979565b602082019050919050565b600060208201905081810360008301526129de816129a2565b9050919050565b6000602082840312156129fb576129fa612016565b5b6000612a098482850161254e565b91505092915050565b7f496e73756666696369656e7420746f6b656e2062616c616e6365000000000000600082015250565b6000612a48601a836125de565b9150612a5382612a12565b602082019050919050565b60006020820190508181036000830152612a7781612a3b565b9050919050565b6000606082019050612a936000830186612344565b612aa06020830185612344565b612aad6040830184612139565b949350505050565b6000604082019050612aca6000830185612139565b612ad76020830184612139565b9392505050565b6000612ae9826120d6565b91507fffffffffffffffffffffffffffffffffffffffffffffffffffffffffffffffff8203612b1b57612b1a61265b565b5b600182019050919050565b6000612b31826120d6565b9150612b3c836120d6565b9250828201905080821115612b5457612b5361265b565b5b92915050565b6000606082019050612b6f6000830186612139565b612b7c6020830185612139565b612b896040830184612139565b949350505050565b7f426964646572206d757374206265204b59432076657269666965640000000000600082015250565b6000612bc7601b836125de565b9150612bd282612b91565b602082019050919050565b60006020820190508181036000830152612bf681612bba565b9050919050565b7f41756374696f6e206973206e6f74206163746976650000000000000000000000600082015250565b6000612c336015836125de565b9150612c3e82612bfd565b602082019050919050565b60006020820190508181036000830152612c6281612c26565b9050919050565b7f41756374696f6e2068617320656e646564000000000000000000000000000000600082015250565b6000612c9f6011836125de565b9150612caa82612c69565b602082019050919050565b60006020820190508181036000830152612cce81612c92565b9050919050565b7f426964206d75737420626520686967686572207468616e2063757272656e742060008201527f6869676865737420626964000000000000000000000000000000000000000000602082015250565b6000612d31602b836125de565b9150612d3c82612cd5565b604082019050919050565b60006020820190508181036000830152612d6081612d24565b9050919050565b7f41756374696f6e206973207374696c6c206f6e676f696e670000000000000000600082015250565b6000612d9d6018836125de565b9150612da882612d67565b602082019050919050565b60006020820190508181036000830152612dcc81612d90565b9050919050565b6000604082019050612de86000830185612344565b612df56020830184612260565b939250505056fea2646970667358221220df91a177e5f0f5f24ab5c6fa918fe6fd63f18c4fd5a7ee9fee46b27aed130c0264736f6c63430008140033",
  "linkReferences": {},
  "deployedLinkReferences": {}
}